{
  "contractName": "ProductContract",
  "abi": [
    {
      "inputs": [
        {
          "internalType": "address",
          "name": "supplierAddress",
          "type": "address"
        }
      ],
      "payable": false,
      "stateMutability": "nonpayable",
      "type": "constructor"
    },
    {
      "constant": false,
      "inputs": [
        {
          "internalType": "string",
          "name": "name",
          "type": "string"
        },
        {
          "internalType": "uint256",
          "name": "productionDate",
          "type": "uint256"
        },
        {
          "internalType": "string",
          "name": "currentLocation",
          "type": "string"
        },
        {
          "internalType": "string",
          "name": "hash",
          "type": "string"
        }
      ],
      "name": "registerProduct",
      "outputs": [],
      "payable": false,
      "stateMutability": "nonpayable",
      "type": "function"
    },
    {
      "constant": false,
      "inputs": [
        {
          "internalType": "string",
          "name": "hash",
          "type": "string"
        },
        {
          "internalType": "address",
          "name": "newOwner",
          "type": "address"
        }
      ],
      "name": "changeOwner",
      "outputs": [],
      "payable": false,
      "stateMutability": "nonpayable",
      "type": "function"
    },
    {
      "constant": false,
      "inputs": [
        {
          "internalType": "string",
          "name": "hash",
          "type": "string"
        },
        {
          "internalType": "string",
          "name": "newLocation",
          "type": "string"
        }
      ],
      "name": "changeLocation",
      "outputs": [],
      "payable": false,
      "stateMutability": "nonpayable",
      "type": "function"
    },
    {
      "constant": true,
      "inputs": [
        {
          "internalType": "string",
          "name": "hash",
          "type": "string"
        }
      ],
      "name": "getProduct",
      "outputs": [
        {
          "components": [
            {
              "internalType": "string",
              "name": "name",
              "type": "string"
            },
            {
              "internalType": "uint256",
              "name": "productionDate",
              "type": "uint256"
            },
            {
              "internalType": "string",
              "name": "currentLocation",
              "type": "string"
            },
            {
              "internalType": "address",
              "name": "owner",
              "type": "address"
            }
          ],
          "internalType": "struct ProductContract.productInstance",
          "name": "",
          "type": "tuple"
        }
      ],
      "payable": false,
      "stateMutability": "view",
      "type": "function"
    },
    {
      "constant": true,
      "inputs": [
        {
          "internalType": "string",
          "name": "a",
          "type": "string"
        },
        {
          "internalType": "string",
          "name": "b",
          "type": "string"
        }
      ],
      "name": "compareStrings",
      "outputs": [
        {
          "internalType": "bool",
          "name": "",
          "type": "bool"
        }
      ],
      "payable": false,
      "stateMutability": "pure",
      "type": "function"
    }
  ],
  "bytecode": "0x60806040523480156200001157600080fd5b506040516200161538038062001615833981810160405262000037919081019062000095565b806000806101000a81548173ffffffffffffffffffffffffffffffffffffffff021916908373ffffffffffffffffffffffffffffffffffffffff160217905550506200010f565b6000815190506200008f81620000f5565b92915050565b600060208284031215620000a857600080fd5b6000620000b8848285016200007e565b91505092915050565b6000620000ce82620000d5565b9050919050565b600073ffffffffffffffffffffffffffffffffffffffff82169050919050565b6200010081620000c1565b81146200010c57600080fd5b50565b6114f6806200011f6000396000f3fe608060405234801561001057600080fd5b50600436106100575760003560e01c8063045ac0301461005c57806368111cce14610078578063bed34bba146100a8578063d8f9d144146100d8578063f889fc01146100f4575b600080fd5b61007660048036036100719190810190610e62565b610110565b005b610092600480360361008d9190810190610d61565b610462565b60405161009f919061132c565b60405180910390f35b6100c260048036036100bd9190810190610df6565b61075c565b6040516100cf9190611231565b60405180910390f35b6100f260048036036100ed9190810190610da2565b6107b5565b005b61010e60048036036101099190810190610df6565b6109c3565b005b3373ffffffffffffffffffffffffffffffffffffffff166000809054906101000a900473ffffffffffffffffffffffffffffffffffffffff1673ffffffffffffffffffffffffffffffffffffffff161461019f576040517f08c379a0000000000000000000000000000000000000000000000000000000008152600401610196906112ec565b60405180910390fd5b6101b8846040518060200160405280600081525061075c565b156101f8576040517f08c379a00000000000000000000000000000000000000000000000000000000081526004016101ef9061128c565b60405180910390fd5b610211826040518060200160405280600081525061075c565b15610251576040517f08c379a0000000000000000000000000000000000000000000000000000000008152600401610248906112ac565b60405180910390fd5b61026a816040518060200160405280600081525061075c565b156102aa576040517f08c379a00000000000000000000000000000000000000000000000000000000081526004016102a19061126c565b60405180910390fd5b61037c6001826040516102bd919061121a565b90815260200160405180910390206000018054600181600116156101000203166002900480601f0160208091040260200160405190810160405280929190818152602001828054600181600116156101000203166002900480156103625780601f1061033757610100808354040283529160200191610362565b820191906000526020600020905b81548152906001019060200180831161034557829003601f168201915b50505050506040518060200160405280600081525061075c565b6103bb576040517f08c379a00000000000000000000000000000000000000000000000000000000081526004016103b29061130c565b60405180910390fd5b60006001826040516103cd919061121a565b90815260200160405180910390209050848160000190805190602001906103f5929190610c00565b5083816001018190555082816002019080519060200190610417929190610c00565b50338160030160006101000a81548173ffffffffffffffffffffffffffffffffffffffff021916908373ffffffffffffffffffffffffffffffffffffffff1602179055505050505050565b61046a610c80565b610472610c80565b600183604051610482919061121a565b9081526020016040518091039020604051806080016040529081600082018054600181600116156101000203166002900480601f0160208091040260200160405190810160405280929190818152602001828054600181600116156101000203166002900480156105345780601f1061050957610100808354040283529160200191610534565b820191906000526020600020905b81548152906001019060200180831161051757829003601f168201915b5050505050815260200160018201548152602001600282018054600181600116156101000203166002900480601f0160208091040260200160405190810160405280929190818152602001828054600181600116156101000203166002900480156105e05780601f106105b5576101008083540402835291602001916105e0565b820191906000526020600020905b8154815290600101906020018083116105c357829003601f168201915b505050505081526020016003820160009054906101000a900473ffffffffffffffffffffffffffffffffffffffff1673ffffffffffffffffffffffffffffffffffffffff1673ffffffffffffffffffffffffffffffffffffffff16815250509050610713600184604051610654919061121a565b90815260200160405180910390206000018054600181600116156101000203166002900480601f0160208091040260200160405190810160405280929190818152602001828054600181600116156101000203166002900480156106f95780601f106106ce576101008083540402835291602001916106f9565b820191906000526020600020905b8154815290600101906020018083116106dc57829003601f168201915b50505050506040518060200160405280600081525061075c565b15610753576040517f08c379a000000000000000000000000000000000000000000000000000000000815260040161074a9061124c565b60405180910390fd5b80915050919050565b60008160405160200161076f919061121a565b6040516020818303038152906040528051906020012083604051602001610796919061121a565b6040516020818303038152906040528051906020012014905092915050565b60006001836040516107c7919061121a565b908152602001604051809103902090506108a96001846040516107ea919061121a565b90815260200160405180910390206000018054600181600116156101000203166002900480601f01602080910402602001604051908101604052809291908181526020018280546001816001161561010002031660029004801561088f5780601f106108645761010080835404028352916020019161088f565b820191906000526020600020905b81548152906001019060200180831161087257829003601f168201915b50505050506040518060200160405280600081525061075c565b156108e9576040517f08c379a00000000000000000000000000000000000000000000000000000000081526004016108e09061124c565b60405180910390fd5b3373ffffffffffffffffffffffffffffffffffffffff168160030160009054906101000a900473ffffffffffffffffffffffffffffffffffffffff1673ffffffffffffffffffffffffffffffffffffffff161461097b576040517f08c379a0000000000000000000000000000000000000000000000000000000008152600401610972906112cc565b60405180910390fd5b818160030160006101000a81548173ffffffffffffffffffffffffffffffffffffffff021916908373ffffffffffffffffffffffffffffffffffffffff160217905550505050565b60006001836040516109d5919061121a565b90815260200160405180910390209050610ab76001846040516109f8919061121a565b90815260200160405180910390206000018054600181600116156101000203166002900480601f016020809104026020016040519081016040528092919081815260200182805460018160011615610100020316600290048015610a9d5780601f10610a7257610100808354040283529160200191610a9d565b820191906000526020600020905b815481529060010190602001808311610a8057829003601f168201915b50505050506040518060200160405280600081525061075c565b15610af7576040517f08c379a0000000000000000000000000000000000000000000000000000000008152600401610aee9061124c565b60405180910390fd5b610b10826040518060200160405280600081525061075c565b15610b50576040517f08c379a0000000000000000000000000000000000000000000000000000000008152600401610b47906112ac565b60405180910390fd5b3373ffffffffffffffffffffffffffffffffffffffff168160030160009054906101000a900473ffffffffffffffffffffffffffffffffffffffff1673ffffffffffffffffffffffffffffffffffffffff1614610be2576040517f08c379a0000000000000000000000000000000000000000000000000000000008152600401610bd9906112cc565b60405180910390fd5b81816002019080519060200190610bfa929190610c00565b50505050565b828054600181600116156101000203166002900490600052602060002090601f016020900481019282601f10610c4157805160ff1916838001178555610c6f565b82800160010185558215610c6f579182015b82811115610c6e578251825591602001919060010190610c53565b5b509050610c7c9190610cbe565b5090565b6040518060800160405280606081526020016000815260200160608152602001600073ffffffffffffffffffffffffffffffffffffffff1681525090565b610ce091905b80821115610cdc576000816000905550600101610cc4565b5090565b90565b600081359050610cf281611485565b92915050565b600082601f830112610d0957600080fd5b8135610d1c610d178261137b565b61134e565b91508082526020830160208301858383011115610d3857600080fd5b610d43838284611432565b50505092915050565b600081359050610d5b8161149c565b92915050565b600060208284031215610d7357600080fd5b600082013567ffffffffffffffff811115610d8d57600080fd5b610d9984828501610cf8565b91505092915050565b60008060408385031215610db557600080fd5b600083013567ffffffffffffffff811115610dcf57600080fd5b610ddb85828601610cf8565b9250506020610dec85828601610ce3565b9150509250929050565b60008060408385031215610e0957600080fd5b600083013567ffffffffffffffff811115610e2357600080fd5b610e2f85828601610cf8565b925050602083013567ffffffffffffffff811115610e4c57600080fd5b610e5885828601610cf8565b9150509250929050565b60008060008060808587031215610e7857600080fd5b600085013567ffffffffffffffff811115610e9257600080fd5b610e9e87828801610cf8565b9450506020610eaf87828801610d4c565b935050604085013567ffffffffffffffff811115610ecc57600080fd5b610ed887828801610cf8565b925050606085013567ffffffffffffffff811115610ef557600080fd5b610f0187828801610cf8565b91505092959194509250565b610f16816113ea565b82525050565b610f25816113fc565b82525050565b6000610f36826113b2565b610f4081856113df565b9350610f50818560208601611441565b80840191505092915050565b6000610f67826113a7565b610f7181856113bd565b9350610f81818560208601611441565b610f8a81611474565b840191505092915050565b6000610fa26015836113ce565b91507f50726f6475637420646f65736e277420657869737400000000000000000000006000830152602082019050919050565b6000610fe26013836113ce565b91507f486173682063616e277420626520656d707479000000000000000000000000006000830152602082019050919050565b60006110226013836113ce565b91507f4e616d652063616e277420626520656d707479000000000000000000000000006000830152602082019050919050565b60006110626017836113ce565b91507f4c6f636174696f6e2063616e277420626520656d7074790000000000000000006000830152602082019050919050565b60006110a2603f836113ce565b91507f4f6e6c79207468652070726f64756374206f776e65722063616e206368616e6760008301527f6520746869732070726f647563742773206f776e657220616464726573732e006020830152604082019050919050565b6000611108602f836113ce565b91507f4f6e6c792074686520737570706c6965722063616e20616464206e657720707260008301527f6f6475637420696e7374616e63657300000000000000000000000000000000006020830152604082019050919050565b600061116e601b836113ce565b91507f50726f64756374206861736820616c72656164792065786973747300000000006000830152602082019050919050565b600060808301600083015184820360008601526111be8282610f5c565b91505060208301516111d3602086018261120b565b50604083015184820360408601526111eb8282610f5c565b91505060608301516112006060860182610f0d565b508091505092915050565b61121481611428565b82525050565b60006112268284610f2b565b915081905092915050565b60006020820190506112466000830184610f1c565b92915050565b6000602082019050818103600083015261126581610f95565b9050919050565b6000602082019050818103600083015261128581610fd5565b9050919050565b600060208201905081810360008301526112a581611015565b9050919050565b600060208201905081810360008301526112c581611055565b9050919050565b600060208201905081810360008301526112e581611095565b9050919050565b60006020820190508181036000830152611305816110fb565b9050919050565b6000602082019050818103600083015261132581611161565b9050919050565b6000602082019050818103600083015261134681846111a1565b905092915050565b6000604051905081810181811067ffffffffffffffff8211171561137157600080fd5b8060405250919050565b600067ffffffffffffffff82111561139257600080fd5b601f19601f8301169050602081019050919050565b600081519050919050565b600081519050919050565b600082825260208201905092915050565b600082825260208201905092915050565b600081905092915050565b60006113f582611408565b9050919050565b60008115159050919050565b600073ffffffffffffffffffffffffffffffffffffffff82169050919050565b6000819050919050565b82818337600083830152505050565b60005b8381101561145f578082015181840152602081019050611444565b8381111561146e576000848401525b50505050565b6000601f19601f8301169050919050565b61148e816113ea565b811461149957600080fd5b50565b6114a581611428565b81146114b057600080fd5b5056fea365627a7a7231582029b805bad189ea8b1d473fe36d9852cb35bb3c5684fb6230785b18d63940f9596c6578706572696d656e74616cf564736f6c63430005100040",
  "source": "pragma solidity >=0.4.22 <0.9.0;\r\npragma experimental ABIEncoderV2;\r\ncontract ProductContract{\r\n    struct productInstance{\r\n        string name;\r\n        uint256 productionDate;\r\n        string currentLocation;\r\n        address owner;\r\n    }\r\n    address supplier;\r\n    mapping(string => productInstance) products;\r\n    \r\n     constructor(address supplierAddress) public {\r\n        supplier = supplierAddress;\r\n    }\r\n    \r\n    function registerProduct (string memory name, uint256  productionDate, string memory currentLocation, string memory hash) public{\r\n        require(supplier == msg.sender,\"Only the supplier can add new product instances\");\r\n        require(!compareStrings(name,\"\"), \"Name can't be empty\");\r\n        require(!compareStrings(currentLocation,\"\"),\"Location can't be empty\");\r\n        require(!compareStrings(hash,\"\"),\"Hash can't be empty\");\r\n        require(compareStrings(products[hash].name,\"\"), \"Product hash already exists\");\r\n        productInstance storage newProduct = products[hash];\r\n        newProduct.name = name;\r\n        newProduct.productionDate = productionDate;\r\n        newProduct.currentLocation = currentLocation;\r\n        newProduct.owner = msg.sender;\r\n\r\n\r\n    }\r\n    \r\n    function changeOwner(string memory hash, address newOwner) public{\r\n        \r\n        productInstance storage product = products[hash];\r\n        require(!compareStrings(products[hash].name,\"\"), \"Product doesn't exist\");\r\n        require(product.owner==msg.sender, \"Only the product owner can change this product's owner address.\");\r\n        product.owner = newOwner;\r\n        \r\n    }\r\n    \r\n    function changeLocation(string memory hash, string memory newLocation)public{\r\n        productInstance storage product = products[hash];\r\n        require(!compareStrings(products[hash].name,\"\"), \"Product doesn't exist\");\r\n        require(!compareStrings(newLocation,\"\"),\"Location can't be empty\");\r\n        require(product.owner==msg.sender, \"Only the product owner can change this product's owner address.\");\r\n        product.currentLocation = newLocation;\r\n      \r\n    }\r\n    \r\n    function getProduct(string memory hash)public view returns (productInstance memory){\r\n        productInstance memory product = products[hash];\r\n        require(!compareStrings(products[hash].name,\"\"), \"Product doesn't exist\");\r\n        return product;\r\n    }\r\n    \r\n    function compareStrings(string memory a, string memory b) public pure returns (bool) {\r\n    return (keccak256(abi.encodePacked((a))) == keccak256(abi.encodePacked((b))));\r\n    }\r\n}",
  "sourcePath": "C:/Users/skandinavisk/Documents/Scopic/advanced-blockchain/ethereum-advanced/src/truffle-backend/contracts/ProductContract.sol",
  "compiler": {
    "name": "solc",
    "version": "0.5.16+commit.9c3226ce.Emscripten.clang"
  },
  "schemaVersion": "3.3.3",
  "updatedAt": "2021-01-20T06:41:41.610Z",
  "devdoc": {
    "methods": {}
  },
  "userdoc": {
    "methods": {}
  }
}