{
  "contractName": "ProductContract",
  "abi": [
    {
      "inputs": [
        {
          "internalType": "address",
          "name": "supplierAddress",
          "type": "address"
        }
      ],
      "payable": false,
      "stateMutability": "nonpayable",
      "type": "constructor"
    },
    {
      "constant": false,
      "inputs": [
        {
          "internalType": "string",
          "name": "name",
          "type": "string"
        },
        {
          "internalType": "uint256",
          "name": "productionDate",
          "type": "uint256"
        },
        {
          "internalType": "string",
          "name": "currentLocation",
          "type": "string"
        },
        {
          "internalType": "string",
          "name": "hash",
          "type": "string"
        }
      ],
      "name": "registerProduct",
      "outputs": [],
      "payable": false,
      "stateMutability": "nonpayable",
      "type": "function"
    },
    {
      "constant": false,
      "inputs": [
        {
          "internalType": "string",
          "name": "hash",
          "type": "string"
        },
        {
          "internalType": "address",
          "name": "newOwner",
          "type": "address"
        }
      ],
      "name": "changeOwner",
      "outputs": [],
      "payable": false,
      "stateMutability": "nonpayable",
      "type": "function"
    },
    {
      "constant": false,
      "inputs": [
        {
          "internalType": "string",
          "name": "hash",
          "type": "string"
        },
        {
          "internalType": "string",
          "name": "newLocation",
          "type": "string"
        }
      ],
      "name": "changeLocation",
      "outputs": [],
      "payable": false,
      "stateMutability": "nonpayable",
      "type": "function"
    },
    {
      "constant": true,
      "inputs": [
        {
          "internalType": "string",
          "name": "hash",
          "type": "string"
        }
      ],
      "name": "getProduct",
      "outputs": [
        {
          "components": [
            {
              "internalType": "string",
              "name": "name",
              "type": "string"
            },
            {
              "internalType": "uint256",
              "name": "productionDate",
              "type": "uint256"
            },
            {
              "internalType": "string",
              "name": "currentLocation",
              "type": "string"
            },
            {
              "internalType": "address",
              "name": "owner",
              "type": "address"
            }
          ],
          "internalType": "struct ProductContract.productInstance",
          "name": "",
          "type": "tuple"
        }
      ],
      "payable": false,
      "stateMutability": "view",
      "type": "function"
    },
    {
      "constant": true,
      "inputs": [
        {
          "internalType": "string",
          "name": "a",
          "type": "string"
        },
        {
          "internalType": "string",
          "name": "b",
          "type": "string"
        }
      ],
      "name": "compareStrings",
      "outputs": [
        {
          "internalType": "bool",
          "name": "",
          "type": "bool"
        }
      ],
      "payable": false,
      "stateMutability": "pure",
      "type": "function"
    }
  ],
  "bytecode": "0x60806040523480156200001157600080fd5b506040516200170438038062001704833981810160405262000037919081019062000095565b806000806101000a81548173ffffffffffffffffffffffffffffffffffffffff021916908373ffffffffffffffffffffffffffffffffffffffff160217905550506200010f565b6000815190506200008f81620000f5565b92915050565b600060208284031215620000a857600080fd5b6000620000b8848285016200007e565b91505092915050565b6000620000ce82620000d5565b9050919050565b600073ffffffffffffffffffffffffffffffffffffffff82169050919050565b6200010081620000c1565b81146200010c57600080fd5b50565b6115e5806200011f6000396000f3fe608060405234801561001057600080fd5b50600436106100575760003560e01c8063045ac0301461005c57806368111cce14610078578063bed34bba146100a8578063d8f9d144146100d8578063f889fc01146100f4575b600080fd5b61007660048036036100719190810190610ea5565b610110565b005b610092600480360361008d9190810190610da4565b6104a5565b60405161009f919061141b565b60405180910390f35b6100c260048036036100bd9190810190610e39565b61079f565b6040516100cf9190611300565b60405180910390f35b6100f260048036036100ed9190810190610de5565b6107f8565b005b61010e60048036036101099190810190610e39565b610a06565b005b3373ffffffffffffffffffffffffffffffffffffffff166000809054906101000a900473ffffffffffffffffffffffffffffffffffffffff1673ffffffffffffffffffffffffffffffffffffffff161461019f576040517f08c379a0000000000000000000000000000000000000000000000000000000008152600401610196906113db565b60405180910390fd5b6101b8846040518060200160405280600081525061079f565b156101f8576040517f08c379a00000000000000000000000000000000000000000000000000000000081526004016101ef9061135b565b60405180910390fd5b610211826040518060200160405280600081525061079f565b15610251576040517f08c379a00000000000000000000000000000000000000000000000000000000081526004016102489061139b565b60405180910390fd5b61026a816040518060200160405280600081525061079f565b156102aa576040517f08c379a00000000000000000000000000000000000000000000000000000000081526004016102a19061133b565b60405180910390fd5b61037c6001826040516102bd91906112e9565b90815260200160405180910390206000018054600181600116156101000203166002900480601f0160208091040260200160405190810160405280929190818152602001828054600181600116156101000203166002900480156103625780601f1061033757610100808354040283529160200191610362565b820191906000526020600020905b81548152906001019060200180831161034557829003601f168201915b50505050506040518060200160405280600081525061079f565b6103bb576040517f08c379a00000000000000000000000000000000000000000000000000000000081526004016103b2906113fb565b60405180910390fd5b428311156103fe576040517f08c379a00000000000000000000000000000000000000000000000000000000081526004016103f59061137b565b60405180910390fd5b600060018260405161041091906112e9565b9081526020016040518091039020905084816000019080519060200190610438929190610c43565b508381600101819055508281600201908051906020019061045a929190610c43565b50338160030160006101000a81548173ffffffffffffffffffffffffffffffffffffffff021916908373ffffffffffffffffffffffffffffffffffffffff1602179055505050505050565b6104ad610cc3565b6104b5610cc3565b6001836040516104c591906112e9565b9081526020016040518091039020604051806080016040529081600082018054600181600116156101000203166002900480601f0160208091040260200160405190810160405280929190818152602001828054600181600116156101000203166002900480156105775780601f1061054c57610100808354040283529160200191610577565b820191906000526020600020905b81548152906001019060200180831161055a57829003601f168201915b5050505050815260200160018201548152602001600282018054600181600116156101000203166002900480601f0160208091040260200160405190810160405280929190818152602001828054600181600116156101000203166002900480156106235780601f106105f857610100808354040283529160200191610623565b820191906000526020600020905b81548152906001019060200180831161060657829003601f168201915b505050505081526020016003820160009054906101000a900473ffffffffffffffffffffffffffffffffffffffff1673ffffffffffffffffffffffffffffffffffffffff1673ffffffffffffffffffffffffffffffffffffffff1681525050905061075660018460405161069791906112e9565b90815260200160405180910390206000018054600181600116156101000203166002900480601f01602080910402602001604051908101604052809291908181526020018280546001816001161561010002031660029004801561073c5780601f106107115761010080835404028352916020019161073c565b820191906000526020600020905b81548152906001019060200180831161071f57829003601f168201915b50505050506040518060200160405280600081525061079f565b15610796576040517f08c379a000000000000000000000000000000000000000000000000000000000815260040161078d9061131b565b60405180910390fd5b80915050919050565b6000816040516020016107b291906112e9565b60405160208183030381529060405280519060200120836040516020016107d991906112e9565b6040516020818303038152906040528051906020012014905092915050565b600060018360405161080a91906112e9565b908152602001604051809103902090506108ec60018460405161082d91906112e9565b90815260200160405180910390206000018054600181600116156101000203166002900480601f0160208091040260200160405190810160405280929190818152602001828054600181600116156101000203166002900480156108d25780601f106108a7576101008083540402835291602001916108d2565b820191906000526020600020905b8154815290600101906020018083116108b557829003601f168201915b50505050506040518060200160405280600081525061079f565b1561092c576040517f08c379a00000000000000000000000000000000000000000000000000000000081526004016109239061131b565b60405180910390fd5b3373ffffffffffffffffffffffffffffffffffffffff168160030160009054906101000a900473ffffffffffffffffffffffffffffffffffffffff1673ffffffffffffffffffffffffffffffffffffffff16146109be576040517f08c379a00000000000000000000000000000000000000000000000000000000081526004016109b5906113bb565b60405180910390fd5b818160030160006101000a81548173ffffffffffffffffffffffffffffffffffffffff021916908373ffffffffffffffffffffffffffffffffffffffff160217905550505050565b6000600183604051610a1891906112e9565b90815260200160405180910390209050610afa600184604051610a3b91906112e9565b90815260200160405180910390206000018054600181600116156101000203166002900480601f016020809104026020016040519081016040528092919081815260200182805460018160011615610100020316600290048015610ae05780601f10610ab557610100808354040283529160200191610ae0565b820191906000526020600020905b815481529060010190602001808311610ac357829003601f168201915b50505050506040518060200160405280600081525061079f565b15610b3a576040517f08c379a0000000000000000000000000000000000000000000000000000000008152600401610b319061131b565b60405180910390fd5b610b53826040518060200160405280600081525061079f565b15610b93576040517f08c379a0000000000000000000000000000000000000000000000000000000008152600401610b8a9061139b565b60405180910390fd5b3373ffffffffffffffffffffffffffffffffffffffff168160030160009054906101000a900473ffffffffffffffffffffffffffffffffffffffff1673ffffffffffffffffffffffffffffffffffffffff1614610c25576040517f08c379a0000000000000000000000000000000000000000000000000000000008152600401610c1c906113bb565b60405180910390fd5b81816002019080519060200190610c3d929190610c43565b50505050565b828054600181600116156101000203166002900490600052602060002090601f016020900481019282601f10610c8457805160ff1916838001178555610cb2565b82800160010185558215610cb2579182015b82811115610cb1578251825591602001919060010190610c96565b5b509050610cbf9190610d01565b5090565b6040518060800160405280606081526020016000815260200160608152602001600073ffffffffffffffffffffffffffffffffffffffff1681525090565b610d2391905b80821115610d1f576000816000905550600101610d07565b5090565b90565b600081359050610d3581611574565b92915050565b600082601f830112610d4c57600080fd5b8135610d5f610d5a8261146a565b61143d565b91508082526020830160208301858383011115610d7b57600080fd5b610d86838284611521565b50505092915050565b600081359050610d9e8161158b565b92915050565b600060208284031215610db657600080fd5b600082013567ffffffffffffffff811115610dd057600080fd5b610ddc84828501610d3b565b91505092915050565b60008060408385031215610df857600080fd5b600083013567ffffffffffffffff811115610e1257600080fd5b610e1e85828601610d3b565b9250506020610e2f85828601610d26565b9150509250929050565b60008060408385031215610e4c57600080fd5b600083013567ffffffffffffffff811115610e6657600080fd5b610e7285828601610d3b565b925050602083013567ffffffffffffffff811115610e8f57600080fd5b610e9b85828601610d3b565b9150509250929050565b60008060008060808587031215610ebb57600080fd5b600085013567ffffffffffffffff811115610ed557600080fd5b610ee187828801610d3b565b9450506020610ef287828801610d8f565b935050604085013567ffffffffffffffff811115610f0f57600080fd5b610f1b87828801610d3b565b925050606085013567ffffffffffffffff811115610f3857600080fd5b610f4487828801610d3b565b91505092959194509250565b610f59816114d9565b82525050565b610f68816114eb565b82525050565b6000610f79826114a1565b610f8381856114ce565b9350610f93818560208601611530565b80840191505092915050565b6000610faa82611496565b610fb481856114ac565b9350610fc4818560208601611530565b610fcd81611563565b840191505092915050565b6000610fe56015836114bd565b91507f50726f6475637420646f65736e277420657869737400000000000000000000006000830152602082019050919050565b60006110256013836114bd565b91507f486173682063616e277420626520656d707479000000000000000000000000006000830152602082019050919050565b60006110656013836114bd565b91507f4e616d652063616e277420626520656d707479000000000000000000000000006000830152602082019050919050565b60006110a56042836114bd565b91507f5468652070726f64756374696f6e20646174652063616e6e6f7420626520696e60008301527f697469616c697a656420746f2061206461746520696e2074686520667574757260208301527f652e0000000000000000000000000000000000000000000000000000000000006040830152606082019050919050565b60006111316017836114bd565b91507f4c6f636174696f6e2063616e277420626520656d7074790000000000000000006000830152602082019050919050565b6000611171603f836114bd565b91507f4f6e6c79207468652070726f64756374206f776e65722063616e206368616e6760008301527f6520746869732070726f647563742773206f776e657220616464726573732e006020830152604082019050919050565b60006111d7602f836114bd565b91507f4f6e6c792074686520737570706c6965722063616e20616464206e657720707260008301527f6f6475637420696e7374616e63657300000000000000000000000000000000006020830152604082019050919050565b600061123d601b836114bd565b91507f50726f64756374206861736820616c72656164792065786973747300000000006000830152602082019050919050565b6000608083016000830151848203600086015261128d8282610f9f565b91505060208301516112a260208601826112da565b50604083015184820360408601526112ba8282610f9f565b91505060608301516112cf6060860182610f50565b508091505092915050565b6112e381611517565b82525050565b60006112f58284610f6e565b915081905092915050565b60006020820190506113156000830184610f5f565b92915050565b6000602082019050818103600083015261133481610fd8565b9050919050565b6000602082019050818103600083015261135481611018565b9050919050565b6000602082019050818103600083015261137481611058565b9050919050565b6000602082019050818103600083015261139481611098565b9050919050565b600060208201905081810360008301526113b481611124565b9050919050565b600060208201905081810360008301526113d481611164565b9050919050565b600060208201905081810360008301526113f4816111ca565b9050919050565b6000602082019050818103600083015261141481611230565b9050919050565b600060208201905081810360008301526114358184611270565b905092915050565b6000604051905081810181811067ffffffffffffffff8211171561146057600080fd5b8060405250919050565b600067ffffffffffffffff82111561148157600080fd5b601f19601f8301169050602081019050919050565b600081519050919050565b600081519050919050565b600082825260208201905092915050565b600082825260208201905092915050565b600081905092915050565b60006114e4826114f7565b9050919050565b60008115159050919050565b600073ffffffffffffffffffffffffffffffffffffffff82169050919050565b6000819050919050565b82818337600083830152505050565b60005b8381101561154e578082015181840152602081019050611533565b8381111561155d576000848401525b50505050565b6000601f19601f8301169050919050565b61157d816114d9565b811461158857600080fd5b50565b61159481611517565b811461159f57600080fd5b5056fea365627a7a723158206d6457719bb5128c3dd9144984c3443d5d460aa823862becdee03e9834a108d86c6578706572696d656e74616cf564736f6c63430005100040",
  "source": "pragma solidity >=0.4.22 <0.9.0;\r\npragma experimental ABIEncoderV2;\r\ncontract ProductContract{\r\n    struct productInstance{\r\n        string name;\r\n        uint256 productionDate;\r\n        string currentLocation;\r\n        address owner;\r\n    }\r\n    address supplier;\r\n    mapping(string => productInstance) products;\r\n    \r\n     constructor(address supplierAddress) public {\r\n        supplier = supplierAddress;\r\n    }\r\n    \r\n    function registerProduct (string memory name, uint256  productionDate, string memory currentLocation, string memory hash) public{\r\n        require(supplier == msg.sender,\"Only the supplier can add new product instances\");\r\n        require(!compareStrings(name,\"\"), \"Name can't be empty\");\r\n        require(!compareStrings(currentLocation,\"\"),\"Location can't be empty\");\r\n        require(!compareStrings(hash,\"\"),\"Hash can't be empty\");\r\n        require(compareStrings(products[hash].name,\"\"), \"Product hash already exists\");\r\n        require(productionDate <= block.timestamp, \"The production date cannot be initialized to a date in the future.\");\r\n        productInstance storage newProduct = products[hash];\r\n        newProduct.name = name;\r\n        newProduct.productionDate = productionDate;\r\n        newProduct.currentLocation = currentLocation;\r\n        newProduct.owner = msg.sender;\r\n\r\n\r\n    }\r\n    \r\n    function changeOwner(string memory hash, address newOwner) public{\r\n        \r\n        productInstance storage product = products[hash];\r\n        require(!compareStrings(products[hash].name,\"\"), \"Product doesn't exist\");\r\n        require(product.owner==msg.sender, \"Only the product owner can change this product's owner address.\");\r\n        product.owner = newOwner;\r\n        \r\n    }\r\n    \r\n    function changeLocation(string memory hash, string memory newLocation)public{\r\n        productInstance storage product = products[hash];\r\n        require(!compareStrings(products[hash].name,\"\"), \"Product doesn't exist\");\r\n        require(!compareStrings(newLocation,\"\"),\"Location can't be empty\");\r\n        require(product.owner==msg.sender, \"Only the product owner can change this product's owner address.\");\r\n        product.currentLocation = newLocation;\r\n      \r\n    }\r\n    \r\n    function getProduct(string memory hash)public view returns (productInstance memory){\r\n        productInstance memory product = products[hash];\r\n        require(!compareStrings(products[hash].name,\"\"), \"Product doesn't exist\");\r\n        return product;\r\n    }\r\n    \r\n    function compareStrings(string memory a, string memory b) public pure returns (bool) {\r\n    return (keccak256(abi.encodePacked((a))) == keccak256(abi.encodePacked((b))));\r\n    }\r\n}",
  "sourcePath": "C:/Users/skandinavisk/Documents/Scopic/advanced-blockchain/ethereum-advanced/src/truffle-backend/contracts/ProductContract.sol",
  "compiler": {
    "name": "solc",
    "version": "0.5.16+commit.9c3226ce.Emscripten.clang"
  },
  "schemaVersion": "3.3.3",
  "updatedAt": "2021-01-26T12:14:14.798Z",
  "devdoc": {
    "methods": {}
  },
  "userdoc": {
    "methods": {}
  }
}